{
  "contractName": "Counter",
  "abi": [
    {
      "inputs": [],
      "name": "current",
      "outputs": [
        {
          "internalType": "uint256",
          "name": "",
          "type": "uint256"
        }
      ],
      "stateMutability": "view",
      "type": "function"
    },
    {
      "inputs": [],
      "name": "increment",
      "outputs": [],
      "stateMutability": "nonpayable",
      "type": "function"
    },
    {
      "inputs": [],
      "name": "decrement",
      "outputs": [],
      "stateMutability": "nonpayable",
      "type": "function"
    }
  ],
  "bytecode": "0x608060405234801561001057600080fd5b506101da806100206000396000f3fe608060405234801561001057600080fd5b50600436106100415760003560e01c80632baeceb7146100465780639fa6a6e314610050578063d09de08a1461006e575b600080fd5b61004e610078565b005b610058610093565b60405161006591906100d0565b60405180910390f35b61007661009c565b005b600160008082825461008a919061011a565b92505081905550565b60008054905090565b60016000808282546100ae919061014e565b92505081905550565b6000819050919050565b6100ca816100b7565b82525050565b60006020820190506100e560008301846100c1565b92915050565b7f4e487b7100000000000000000000000000000000000000000000000000000000600052601160045260246000fd5b6000610125826100b7565b9150610130836100b7565b925082821015610143576101426100eb565b5b828203905092915050565b6000610159826100b7565b9150610164836100b7565b9250827fffffffffffffffffffffffffffffffffffffffffffffffffffffffffffffffff03821115610199576101986100eb565b5b82820190509291505056fea2646970667358221220ef63fc3df57ce9a1374aa6ffce413635e718e89aa16cfc298265c30677b1d1f864736f6c634300080f0033",
  "immutableReferences": {},
  "source": "// SPDX-License-Identifier: MIT\npragma solidity ^0.8.15;\n \ncontract Counter {\n    \n    uint256 private _count;\n \n    // 상태변수가 private 이기 때문에 getter 함수를 직접 만들어줘야 한다.\n    function current() public view returns(uint256) {\n        return _count;\n    }\n \n    // 상태변수 변경 함수\n    function increment() public {\n        _count += 1;\n    }\n \n    function decrement() public {\n        _count -= 1;\n    }\n}\n",
  "sourcePath": "/home/cce127127/truffle-deploy-ganache-ethereum/truffle/contracts/Counter.sol",
  "compiler": {
    "name": "solc",
    "version": "0.8.15+commit.e14f2714.Emscripten.clang"
  },
  "schemaVersion": "3.4.8",
  "updatedAt": "2024-04-11T08:23:13.700Z",
  "devdoc": {
    "kind": "dev",
    "methods": {},
    "version": 1
  },
  "userdoc": {
    "kind": "user",
    "methods": {},
    "version": 1
  }
}